:100000000C9446000C9465000C9465000C946500FB
:100010000C9465000C944E030C9465000C946500E0
:100020000C9465000C9465000C9465000C946500BC
:100030000C9465000C9465000C9465000C946500AC
:100040000C945D030C9465000C9465000C946500A1
:100050000C9465000C9465000C9465000C9465008C
:100060000C9465000C9465000C9465000C9465007C
:100070000C9465000C9465000C9465000C9465006C
:100080000C9465000C9465000C94650011241FBE4F
:10009000CFEFD0E1DEBFCDBF21E0A4E5B1E001C0EC
:1000A0001D92A036B207E1F711E0A0E0B1E0EAEF5F
:1000B000F4E100E00BBF02C007900D92A435B10738
:1000C000D9F70E9472030C947B0A0C940000C0982C
:1000D00083E08FB9779BFECF9FB9779BFECF1FB888
:1000E000779BFECF1FB8779BFECF8FB1FB0180833C
:1000F0001FB8779BFECF8FB1FB018183C09A089513
:10010000C09886E08FB9779BFECFC09AC09882E0F6
:100110008FB9779BFECF9FB9779BFECF1FB8779B98
:10012000FECFFB0180818FB9779BFECFFB018181E0
:100130008FB9779BFECFC09A95E0C0989FB9779B07
:10014000FECF1FB8779BFECF8FB11FB8779BFECF36
:10015000C09A80FDF2CF08955D9BFECF8CB90895C3
:100160000F931F93CF93DF93EC018C010A501E4F26
:100170008991882329F00E94AC00C017D107C1F7EC
:10018000DF91CF911F910F9108958091740087FFA7
:10019000FCCF08950F931F93CF938C01C62F0E941D
:1001A000C50084E8C11101C084EC809374000E94F2
:1001B000C50080917300F8018083809171008835BB
:1001C00011F4CC2351F080917100803531F0809191
:1001D0007100CF911F910F9108958FEFFACFCF93B8
:1001E000C82F0E94C500C093730084E880937400F8
:1001F0000E94C50080917100883141F080917100AA
:10020000803421F080917100CF9108958FEFFCCF61
:10021000CF93C82F0E94C500C093730084E88093D9
:1002200074000E94C50080917100883221F0809195
:100230007100CF9108958FEFFCCF84EA8093740012
:100240000E94C50080917100883039F08091710062
:10025000803119F08091710008958FEF0895282F53
:10026000FC0180E031E39191892798E0582F880FB5
:1002700057FD83279150D1F79E2F921B961798F325
:10028000841711F084E0089580E00895CF92DF9202
:10029000EF92FF921F93CF93DF9300D01F92CDB7C1
:1002A000DEB76C017B010E941D01182F80E80E94BF
:1002B000EF00182BCA94CD28B9F185EE0E940801F1
:1002C000182B0E941D01182B81E80E94EF00182BAB
:1002D00060E0CE0101960E94CA00182B60E0CE01BA
:1002E00002960E94CA00182B8981F70181838A81B6
:1002F000808361E0CE0103960E94CA00182B4B81D7
:1003000062E0CE0101960E942F0194E9909374005F
:10031000812B0F900F900F90DF91CF911F91FF9045
:10032000EF90DF90CF90089583EEC8CFEFE3FFE129
:100330003197F1F700C00000E5E6F0E090819260AF
:10034000908390819E7F908390819460908394B3FA
:10035000906F94BB95B39F70282F207F922B95BBF5
:10036000000000000000000000000000000000008D
:10037000000000000000000000000000000000007D
:10038000000000000000000000000000000000006D
:1003900090819B7F9083000000000000000000001F
:1003A000000000000000000000000000000000004D
:1003B000000000000000000000000000000000003D
:1003C00000000000000090819460908395B39F70BE
:1003D00040E1849F90011124892F822B85BB00006E
:1003E000000000000000000000000000000000000D
:1003F00000000000000000000000000000000000FD
:1004000000000000000000000000000000008081EB
:100410008B7F808384B38F7084BB85B3806F85BBF3
:1004200008950F931F93CF93DF93162F082FEC019E
:1004300089910E9496018C2F801B8117C8F3DF9150
:10044000CF911F910F910895EFE3FFE13197F1F7FD
:1004500000C00000E5E6F0E090819D7F90839081F0
:100460009E7F908390819460908394B3906F94BBAF
:1004700095B39F70282F207F922B95BB0000000022
:10048000000000000000000000000000000000006C
:10049000000000000000000000000000000000005C
:1004A00000000000000000000000000090819B7F21
:1004B0009083000000000000000000000000000029
:1004C000000000000000000000000000000000002C
:1004D000000000000000000000000000000000001C
:1004E000000090819460908395B39F7040E1849F59
:1004F00090011124892F822B85BB00000000000091
:1005000000000000000000000000000000000000EB
:1005100000000000000000000000000000000000DB
:100520000000000000000000000080818B7F8083BD
:1005300084B38F7084BB85B3806F85BB0895CF92E1
:10054000DF92EF92FF921F93CF93DF93EFE3FFE1F0
:100550003197F1F700C0000094B39F7094BB95B33E
:10056000906F95BB909165009D7F909365009091F1
:100570006500916090936500909165009460909300
:100580006500000000000000000000000000000006
:10059000000000000000000000000000000000005B
:1005A000000000000000000000000000000000004B
:1005B0000000C3B3909165009B7F9093650000009D
:1005C000000000000000000000000000000000002B
:1005D000000000000000000000000000000000001B
:1005E00000000000000000000000000000009091EA
:1005F000650094609093650000000000000000001A
:1006000000000000000000000000000000000000EA
:1006100000000000000000000000000000000000DA
:10062000000000000000000093B392959F70C07717
:10063000209165002B7F20936500C92B162F110F89
:10064000110F110F880F880F880F90E0B0E0A0E025
:100650006C017D01FEEBCF0ED11CF1E0EF1EF11C11
:10066000D0E0812F8D0F80640E942402EBBEF60142
:1006700087910E949601DF5F2FEFC21AD20AE20A29
:10068000F20AD83071F78C2F8068DF91CF911F91DB
:10069000FF90EF90DF90CF900C9424021F920F9266
:1006A0000FB60F9211248F9381E0809359018F919F
:1006B0000F900FBE0F901F9018951F920F920FB6BC
:1006C0000F9211248F93F894809158018F5F80933B
:1006D00058018091580178948F910F900FBE0F9020
:1006E0001F901895CF93DF93CDB7DEB72B970FB63A
:1006F000F894DEBF0FBECDBF87B3876087BBC09ABB
:1007000080E58DB91EB881E48093700084E0809309
:1007100074000E941D0180E80E94EF008EEF0E948D
:10072000080114E9109374008FE59AEE0197F1F730
:1007300000C000000E941D0180E80E94EF008AEFC7
:100740000E9408018FE00E9408010E941D0181E8BB
:100750000E94EF0060E0CE0106960E94CA0060E0B1
:10076000CE0109960E94CA0060E0CE0105960E9463
:10077000CA0060E0CE0109960E94CA0060E0CE0186
:1007800004960E94CA0060E0CE0109960E94CA0049
:1007900060E0CE0103960E94CA0061E0CE01099696
:1007A0000E94CA00109374000E941D0180E80E94FC
:1007B000EF008CEF0E94080189EC0E9408010E9462
:1007C0001D0181E80E94EF0060E0CE0102960E94C8
:1007D000CA0060E0CE0101960E94CA0060E0CE012E
:1007E00009960E94CA0060E0CE0108960E94CA00E5
:1007F00060E0CE0107960E94CA0061E0CE01099632
:100800000E94CA00109374000E941D0180E80E949B
:10081000EF0087EE0E9408010E941D0181E80E94FE
:10082000EF0060E0CE010B960E94CA0061E0CE01AD
:1008300009960E94CA00109374008B858E77806899
:100840008B870E941D0180E80E94EF0086EE0E94C7
:1008500008018B850E940801109374008BB18BB93D
:1008600088E18AB986E1809395001092900017E0A4
:1008700019B9809165008D7F809365008091650036
:100880008E7F80936500809165008B7F80936500EB
:100890008091640082608093640080916400816034
:1008A000809364008091640084608093640084B3CA
:1008B0008F7084BB85B3806F85BB88E20E94240261
:1008C00081E00E9424029FEF2DEE82E091502040B3
:1008D0008040E1F700C0000086E00E9424028CE026
:1008E0000E94240282E00E94240280E80E942402E6
:1008F00060E080E00E949F0261E081E00E949F0230
:1009000062E082E00E949F0263E083E00E949F0217
:1009100064E084E00E949F0265E085E00E949F02FF
:1009200066E086E00E949F0267E087E00E949F02E7
:1009300082E082B983E08ABF80E189BF13BF87B7B5
:10094000816087BF789481E091E090935D0180930E
:100950005C0184E6C82ED12C0AE010E09AE0A92EB2
:1009600025E4E22E21E0F22E8091580181110EC182
:1009700066E571E081E090E00E94460164E571E087
:1009800090E080E00E94460160915601709157010D
:100990006C7F90E080E00E94B10622E538EB4FE2E8
:1009A0005BE30E943F0726E636E64BE352E40E94F3
:1009B000150620E030E040E251E40E943F070E942B
:1009C00082067093570160935601609154017091B3
:1009D00055016C7F90E080E00E94B10620E030E09D
:1009E0004AEF5AE30E943F0720E030E040EC50E439
:1009F0000E94150620E030E040E251E40E943F07EB
:100A00000E948206709355016093540166E571E07F
:100A100080E091E00E94800064E571E080E092E077
:100A20000E948000BE01675F7F4F90E080E00E94DF
:100A30004601B82EBE016F5F7F4F81E090E00E94BB
:100A40004601982E69817A816C7F90E080E00E9457
:100A5000B10622E538EB4FE25BE30E943F0726E652
:100A600036E64BE352E40E94150620E030E040E217
:100A700051E40E943F070E948206709357016093E1
:100A8000560169857A856C7F90E080E00E94B1060E
:100A900020E030E04AEF5AE30E943F0720E030E0D8
:100AA00040EC50E40E94150620E030E040E251E4C2
:100AB0000E943F070E948206709355016093540183
:100AC000B9289FEF80E8B912A0C00E94240280904C
:100AD00056019090570167E08FE091E00E9411026B
:100AE000C401B6010E94AC07B62E662321F080E354
:100AF000860F0E949601C401B8010E94AC07862FA0
:100B0000AB9C80191124882319F0805D0E94960106
:100B10008EE20E949601C401B8010E94AC07805D7C
:100B20000E94960183E40E94960180EC0E942402B8
:100B3000809054019090550167E087E191E00E9418
:100B40001102C401B6010E94AC07B62E662321F043
:100B500080E3860F0E949601C401B8010E94AC0791
:100B6000862FAB9C80191124882319F0805D0E9488
:100B700096018EE20E949601C401B8010E94AC0762
:100B8000805D0E94960185E20E9496018091590144
:100B9000882309F4E9CE66E571E080E091E00E94E7
:100BA000670064E571E080E092E00E9467008CE3FA
:100BB00091E00E94B0008091560190915701B801D8
:100BC0000E94AC079F938F937F936F93FF92EF9256
:100BD0000E94C0078BE491E00E94B0008091540114
:100BE00090915501B8010E94AC079F938F937F931A
:100BF0006F93FF92EF920E94C007109259010FB6B7
:100C0000F894DEBF0FBECDBFAFCE0E9424026CE0D1
:100C10008FE191E00E94110280EC0E9424026CE0BE
:100C20008DE291E00E941102B1CF5058BB27AA2754
:100C30000E942D060C9405070E94F70638F00E94CA
:100C4000FE0620F039F49F3F19F426F40C94F406C4
:100C50000EF4E095E7FB0C94EE06E92F0E941607D0
:100C600058F3BA17620773078407950720F079F4E1
:100C7000A6F50C9438070EF4E0950B2EBA2FA02D94
:100C80000B01B90190010C01CA01A0011124FF2739
:100C9000591B99F0593F50F4503E68F11A16F04034
:100CA000A22F232F342F4427585FF3CF4695379533
:100CB0002795A795F0405395C9F77EF41F16BA0BF8
:100CC000620B730B840BBAF09150A1F0FF0FBB1FA6
:100CD000661F771F881FC2F70EC0BA0F621F731FEF
:100CE000841F48F4879577956795B795F7959E3F4C
:100CF00008F0B0CF9395880F08F09927EE0F9795DD
:100D0000879508950E941E0788F09F5798F0B92F85
:100D10009927B751B0F0E1F0660F771F881F991F30
:100D20001AF0BA95C9F714C0B13091F00E94380793
:100D3000B1E008950C943807672F782F8827B85FA3
:100D400039F0B93FCCF3869577956795B395D9F788
:100D50003EF490958095709561957F4F8F4F9F4F92
:100D60000895E89409C097FB3EF49095809570959E
:100D700061957F4F8F4F9F4F9923A9F0F92F96E9E7
:100D8000BB279395F695879577956795B795F1115C
:100D9000F8CFFAF4BB0F11F460FF1BC06F5F7F4FF9
:100DA0008F4F9F4F16C0882311F096E911C077230B
:100DB00021F09EE8872F762F05C0662371F096E814
:100DC000862F70E060E02AF09A95660F771F881FE3
:100DD000DAF7880F9695879597F9089597F99F67A1
:100DE00080E870E060E008959FEF80EC08950024B3
:100DF0000A941616170618060906089500240A9480
:100E000012161306140605060895092E0394000C05
:100E100011F4882352F0BB0F40F4BF2B11F460FF94
:100E200004C06F5F7F4F8F4F9F4F089557FD9058BD
:100E3000440F551F59F05F3F71F04795880F97FB9E
:100E4000991F61F09F3F79F0879508951216130658
:100E50001406551FF2CF4695F1DF08C01616170687
:100E60001806991FF1CF86957105610508940895BC
:100E7000E894BB2766277727CB0197F908950E944E
:100E800052070C9405070E94F70638F00E94FE06F0
:100E900020F0952311F00C94EE060C94F406112426
:100EA0000C9439070E94160770F3959FC1F3950FB4
:100EB00050E0551F629FF001729FBB27F00DB11DDE
:100EC000639FAA27F00DB11DAA1F649F6627B00D6E
:100ED000A11D661F829F2227B00DA11D621F739F57
:100EE000B00DA11D621F839FA00D611D221F749F65
:100EF0003327A00D611D231F849F600D211D822FAC
:100F0000762F6A2F11249F5750409AF0F1F08823D2
:100F10004AF0EE0FFF1FBB1F661F771F881F9150FF
:100F20005040A9F79E3F510580F00C94EE060C94BA
:100F300039075F3FE4F3983ED4F38695779567953C
:100F4000B795F795E7959F5FC1F7FE2B880F911D29
:100F50009695879597F90895AA1BBB1B51E107C089
:100F6000AA1FBB1FA617B70710F0A61BB70B881F39
:100F7000991F5A95A9F780959095BC01CD010895C8
:100F8000CF93DF93CDB7DEB7AE014B5F5F4FFA0172
:100F900061917191AF0180915C0190915D010E941E
:100FA000D407DF91CF9108952F923F924F925F9295
:100FB0006F927F928F929F92AF92BF92CF92DF9269
:100FC000EF92FF920F931F93CF93DF93CDB7DEB7CE
:100FD0002B970FB6F894DEBF0FBECDBF7C013B014F
:100FE0008A01FC0117821682838181FFDDC1CE0157
:100FF00001965C01F7019381F30193FD859193FFC5
:1010000081913F01882309F453C1853239F493FD5E
:10101000859193FF81913F01853229F4B70190E0DA
:101020000E94ED09E7CF912C212C312CFFE1F31523
:1010300038F08B3211F190F4803209F1833229F1CA
:1010400037FC3CC020ED280F2A3050F536FE20C07A
:101050008AE0989E200D1124922E06C08D3291F0C8
:10106000803371F7689430F8F30193FD859193FF15
:1010700081913F018111DACF21C0689431F86894E1
:1010800032F8F2CF689433F8EFCF689434F8ECCFAD
:10109000EAE02E9E200D1124222E689435F8E4CF2C
:1010A0008E3229F436FC04C1689436F8DDCF8C36D4
:1010B00019F4689437F8D8CF8836B1F2982F9F7D0D
:1010C00095549330E0F08336A1F18337C1F1833535
:1010D00009F063C02801F2E04F0E511CF801C080F6
:1010E000D180692D70E036FC02C06FEF7FEFC60142
:1010F0000E94D7094C01689437F882010AC00C5F3E
:101100001F4FFFE3F98388248394912C6501E894B1
:1011100037F833FE2DC0522C8114910471F55520FF
:1011200009F468CFB70180E290E00E94ED095A947B
:10113000F6CFF801808189830E5F1F4FE4CF28012D
:10114000F2E04F0E511CF801C080D180692D70E093
:1011500036FC02C06FEF7FEFC6010E94E2094C012E
:101160008201D5CFB70180E290E00E94ED092A9478
:101170002814190409F0B0F7CECFF60137FC859199
:1011800037FE81916F01B70190E00E94ED09511087
:101190005A94F1E08F1A9108BFCF843619F089363E
:1011A00009F077C0F80137FE6BC0608171818281E0
:1011B00093810C5F1F4FF32DFF763F2E97FF09C0E1
:1011C00090958095709561957F4F8F4F9F4F689454
:1011D00037F82AE030E0A5010E941D0AC82ECA187F
:1011E0008C2C432C36FE0CC0E89440F8C91440F413
:1011F00034FE05C032FC03C0F32DFE7E4F2E892C39
:1012000044FEAAC0FE01EC0DF11D8081803309F07F
:101210009CC0242D297E422E842D8870582E43FC9C
:10122000AAC040FEA4C09C2C821418F42C0C922C52
:10123000981844FEA6C0B70180E390E00E94ED0933
:1012400042FE09C088E790E041FE02C088E590E0D8
:10125000B7010E94ED09C91408F49FC0CA94D12CAB
:101260009FEFC91AD90ACA0CDB1CF60182916F01E3
:10127000B70190E00E94ED09AC14BD04B1F74FCF67
:1012800060817181072E000C880B990B0E5F1F4F38
:1012900092CFD32CE894D4F82AE030E08537E1F1FE
:1012A000232D297FD22E8F36A9F1F0F4883551F104
:1012B000F701868197812B960FB6F894DEBF0FBE9B
:1012C000CDBFDF91CF911F910F91FF90EF90DF90F5
:1012D000CF90BF90AF909F908F907F906F905F90D6
:1012E0004F903F902F900895803749F0883701F74D
:1012F000D4FE02C06894D2F820E130E00DC06894BA
:10130000D4F8F6CF34FE03C0822F8660D82E20E1B9
:1013100032E002C028E030E0F801D7FE0FC0608163
:101320007181828193810C5F1F4FA5010E941D0A6C
:10133000C82ECA183D2CE89437F852CF60817181CD
:1013400090E080E00E5F1F4FF0CF42FC02C083941C
:1013500063CF8394839460CF842D867809F45CCF27
:10136000F6CFB70180E290E00E94ED0983948214E9
:10137000C0F3512C5ECF522C5818821408F459CF68
:10138000F8CF842D867809F466CF8BE241FE80E2A7
:1013900047FC8DE2B70190E05CCFB70180E390E0BD
:1013A0000E94ED099A9457CF8FEF9FEF84CFFC01F5
:1013B0000590615070400110D8F7809590958E0F80
:1013C0009F1F0895FC016150704001900110D8F7F3
:1013D000809590958E0F9F1F08950F931F93CF9325
:1013E000DF93182F092FEB018B8181FD09C01FEFBF
:1013F0000FEF812F902FDF91CF911F910F910895C3
:1014000082FF14C02E813F818C819D81281739076E
:101410003CF4E881F981CF01019699838883108398
:101420008E819F8101969F838E83E3CFE885F98526
:10143000812F0995892BA1F3DACFFA01AA27283049
:1014400051F1203181F1E8946F936E7F6E5F7F4F91
:101450008F4F9F4FAF4FB1E03ED0B4E03CD0670F0D
:10146000781F891F9A1FA11D680F791F8A1F911D60
:10147000A11D6A0F711D811D911DA11D20D009F4B0
:1014800068943F912AE0269F11243019305D3193F2
:10149000DEF6CF010895462F4770405D4193B3E0DB
:1014A0000FD0C9F7F6CF462F4F70405D4A3318F082
:1014B000495D31FD4052419302D0A9F7EACFB4E033
:1014C000A6959795879577956795BA95C9F70097EB
:1014D0006105710508959B01AC010A2E069457958C
:1014E000479537952795BA95C9F7620F731F841FE3
:0A14F000951FA01D0895F894FFCF8A
:1014FA00010000000200000000AC000000000054DF
:10150A00656D70203A200048756D69203A200020E8
:10151A0054656D70203A202D2D2E2D4300204875DC
:10152A006D69203A202D2D2E2D2525000A0D546592
:10153A006D703A200025752E2575000A0D48756DC7
:04154A00693A2000DA
:00000001FF
