:100000000C9446000C9458000C9458000C94580022
:100010000C9458000C944E020C9436020C941E0260
:100020000C9406020C9458000C9458000C94580040
:100030000C9458000C9458000C9466020C945800D0
:100040000C9458000C9458000C9458000C945800D0
:100050000C9458000C9458000C9458000C945800C0
:100060000C9458000C9458000C9458000C945800B0
:100070000C9458000C9458000C9458000C945800A0
:100080000C9458000C9458000C94580011241FBE76
:10009000CFEFD0E1DEBFCDBF21E0A0E0B1E001C0F5
:1000A0001D92A830B207E1F70E9488020C94250344
:1000B0000C940000EFE3FFE13197F1F700C000007E
:1000C000E5E6F0E090819D7F908390819E7F908314
:1000D00090819460908394B3906F94BB95B39F701C
:1000E000282F207F922B95BB00000000000000000D
:1000F0000000000000000000000000000000000000
:1001000000000000000000000000000000000000EF
:10011000000000000000000090819B7F90830000A1
:1001200000000000000000000000000000000000CF
:1001300000000000000000000000000000000000BF
:10014000000000000000000000000000000090819E
:100150009460908395B39F7040E1849F9001112437
:10016000892F822B85BB00000000000000000000EA
:10017000000000000000000000000000000000007F
:10018000000000000000000000000000000000006F
:1001900000000000000080818B7F808384B38F701B
:1001A00084BB85B3806F85BB0895CF92DF92EF92B9
:1001B000FF921F93CF93DF93EFE3FFE13197F1F7C6
:1001C00000C0000094B39F7094BB95B3906F95BB33
:1001D000909165009D7F909365009091650091607E
:1001E0009093650090916500946090936500000085
:1001F00000000000000000000000000000000000FF
:1002000000000000000000000000000000000000EE
:100210000000000000000000000000000000C3B368
:10022000909165009B7F90936500000000000000A6
:1002300000000000000000000000000000000000BE
:1002400000000000000000000000000000000000AE
:100250000000000000000000000090916500946024
:100260009093650000000000000000000000000006
:10027000000000000000000000000000000000007E
:10028000000000000000000000000000000000006E
:100290000000000093B392959F70C0772091650095
:1002A0002B7F20936500C92BD62FDD0FDD0FDD0FCF
:1002B000880F880F880F90E0B0E0A0E06C017D010E
:1002C000FEEBCF0ED11CF1E0EF1EF11C10E08D2FE4
:1002D000810F80640E945A00EBBEF60127918FE3E4
:1002E0009FE10197F1F700C00000809165008260F6
:1002F00080936500809165008E7F8093650080917A
:10030000650084608093650084B3806F84BB95B37F
:100310009F70822F807F982B95BB0000000000000B
:1003200000000000000000000000000000000000CD
:1003300000000000000000000000000000000000BD
:1003400000000000000000000000809165008B7F2D
:100350008093650000000000000000000000000025
:10036000000000000000000000000000000000008D
:10037000000000000000000000000000000000007D
:10038000000000008091650084608093650085B363
:100390008F7090E1299F90011124822B85BB000072
:1003A000000000000000000000000000000000004D
:1003B000000000000000000000000000000000003D
:1003C000000000000000000000000000000080911C
:1003D00065008B7F8093650084B38F7084BB85B389
:1003E000806F85BB1F5FEFEFCE1ADE0AEE0AFE0AB2
:1003F000183009F06CCF8C2F8068DF91CF911F915E
:10040000FF90EF90DF90CF900C945A001F920F92C4
:100410000FB60F9211248F939F9388E0809307016A
:100420009091070185B3892B85BB109206019F919E
:100430008F910F900FBE0F901F9018951F920F92E3
:100440000FB60F9211248F939F9384E0809307013E
:100450009091070185B3892B85BB109205019F916F
:100460008F910F900FBE0F901F9018951F920F92B3
:100470000FB60F9211248F939F9382E08093070110
:100480009091070185B3892B85BB109204019F9140
:100490008F910F900FBE0F901F9018951F920F9283
:1004A0000FB60F9211248F939F9381E080930701E1
:1004B0009091070185B3892B85BB109203019F9111
:1004C0008F910F900FBE0F901F9018951F920F9253
:1004D0000FB60F9211240BB60F928F93EF93FF93E9
:1004E000E3E0F1E080818F5F808381818F5F818392
:1004F00082818F5F828383818F5F8383FF91EF91FE
:100500008F910F900BBE0F900FBE0F901F901895FC
:100510008BB18BB988E18AB986E1809395001092FE
:10052000900087E089B9809165008D7F8093650098
:10053000809165008E7F80936500809165008B7F40
:100540008093650080916400826080936400809154
:100550006400816080936400809164008460809373
:10056000640084B38F7084BB85B3806F85BB88E2E1
:100570000E945A0081E00E945A002FEF8DEE92E017
:10058000215080409040E1F700C0000086E00E94CA
:100590005A008CE00E945A0082E00E945A0080E8D3
:1005A0000E945A0060E080E00E94D50061E081E096
:1005B0000E94D50062E082E00E94D50063E083E003
:1005C0000E94D50064E084E00E94D50065E085E0EB
:1005D0000E94D50066E086E00E94D50067E087E0D3
:1005E0000E94D5008EB585608EBD1DBC1CBC87B732
:1005F000846087BF12B880EF89BF8AEA8ABF789487
:100600008FEF84BB15BA41E050E061E680910701AD
:100610008823E1F390E080E0FC01ED5FFE4F208154
:10062000273070F075B39A01082E01C0220F0A948A
:10063000EAF72095272325BB5D9BFECF6CB910827E
:0E06400001968430910541F7E1CFF894FFCF89
:00000001FF
