:100000000C9446000C9458000C9458000C94580022
:100010000C9458000C94C1020C948D020C9458025C
:100020000C9423020C9458000C9458000C94580023
:100030000C9458000C9458000C9458000C945800E0
:100040000C9458000C9458000C94F4020C94580032
:100050000C9458000C9458000C9458000C945800C0
:100060000C9458000C9458000C9458000C945800B0
:100070000C9458000C9458000C9458000C945800A0
:100080000C9458000C9458000C94580011241FBE76
:10009000CFEFD0E1DEBFCDBF21E0A0E0B1E001C0F5
:1000A0001D92AC30B207E1F70E941F030C9493033A
:1000B0000C9400005D9BFECF8CB908958CB1813308
:1000C00019F481E0809308018CB1823319F482E045
:1000D000809309018CB1833319F483E080930A0182
:1000E0008CB1843319F484E080930B010895EFE31D
:1000F000FFE13197F1F700C00000E5E6F0E0908104
:100100009D7F908390819E7F908390819460908367
:1001100094B3906F94BB95B39F70282F207F922B40
:1001200095BB00000000000000000000000000007F
:1001300000000000000000000000000000000000BF
:1001400000000000000000000000000000000000AF
:10015000000090819B7F9083000000000000000061
:10016000000000000000000000000000000000008F
:10017000000000000000000000000000000000007F
:10018000000000000000000090819460908395B30F
:100190009F7040E1849F90011124892F822B85BBA1
:1001A000000000000000000000000000000000004F
:1001B000000000000000000000000000000000003F
:1001C000000000000000000000000000000000002F
:1001D00080818B7F808384B38F7084BB85B3806F75
:1001E00085BB0895CF92DF92EF92FF921F93CF933A
:1001F000DF93EFE3FFE13197F1F700C0000094B324
:100200009F7094BB95B3906F95BB909165009D7F57
:100210009093650090916500916090936500909136
:1002200065009460909365000000000000000000ED
:1002300000000000000000000000000000000000BE
:1002400000000000000000000000000000000000AE
:100250000000000000000000C3B3909165009B7F88
:100260009093650000000000000000000000000006
:10027000000000000000000000000000000000007E
:10028000000000000000000000000000000000006E
:10029000000000009091650094609093650000005C
:1002A000000000000000000000000000000000004E
:1002B000000000000000000000000000000000003E
:1002C000000000000000000000000000000093B3E8
:1002D00092959F70C077209165002B7F20936500D9
:1002E000C92BD62FDD0FDD0FDD0F880F880F880F8C
:1002F00090E0B0E0A0E06C017D01FEEBCF0ED11CE0
:10030000F1E0EF1EF11C10E08D2F810F80640E9440
:100310007700EBBEF60127918FE39FE10197F1F79C
:1003200000C000008091650082608093650080912C
:1003300065008E7F80936500809165008460809366
:10034000650084B3806F84BB95B39F70822F807FDC
:10035000982B95BB0000000000000000000000008A
:10036000000000000000000000000000000000008D
:10037000000000000000000000000000000000007D
:1003800000000000809165008B7F80936500000075
:10039000000000000000000000000000000000005D
:1003A000000000000000000000000000000000004D
:1003B000000000000000000000000000000080912C
:1003C000650084608093650085B38F7090E1299FFC
:1003D00090011124822B85BB00000000000000006A
:1003E000000000000000000000000000000000000D
:1003F00000000000000000000000000000000000FD
:100400000000000000000000809165008B7F809359
:10041000650084B38F7084BB85B3806F85BB1F5F1D
:10042000EFEFCE1ADE0AEE0AFE0A183009F06CCFA2
:100430008C2F8068DF91CF911F91FF90EF90DF901C
:10044000CF900C9477001F920F920FB60F92112449
:100450000BB60F922F933F934F935F936F937F93BE
:100460008F939F93AF93BF93EF93FF930E945E0090
:1004700080910B01843049F488E08093070183E088
:100480008093060184E30E945A00FF91EF91BF918F
:10049000AF919F918F917F916F915F914F913F911C
:1004A0002F910F900BBE0F900FBE0F901F901895BD
:1004B0001F920F920FB60F9211240BB60F922F932B
:1004C0003F934F935F936F937F938F939F93AF93DC
:1004D000BF93EF93FF930E945E0080910A018330E7
:1004E00049F484E08093070182E08093060183E36E
:1004F0000E945A00FF91EF91BF91AF919F918F9110
:100500007F916F915F914F913F912F910F900BBE13
:100510000F900FBE0F901F9018951F920F920FB65D
:100520000F9211240BB60F922F933F934F935F932B
:100530006F937F938F939F93AF93BF93EF93FF93AB
:100540000E945E0080910901823041F4809307018E
:1005500081E08093060182E30E945A00FF91EF91AF
:10056000BF91AF919F918F917F916F915F914F91CB
:100570003F912F910F900BBE0F900FBE0F901F90C9
:1005800018951F920F920FB60F9211240BB60F926F
:100590002F933F934F935F936F937F938F939F938B
:1005A000AF93BF93EF93FF930E945E008091080189
:1005B000813039F4809307011092060181E30E9493
:1005C0005A00FF91EF91BF91AF919F918F917F91D1
:1005D0006F915F914F913F912F910F900BBE0F90B4
:1005E0000FBE0F901F9018951F920F920FB60F928B
:1005F00011240BB60F922F933F934F935F936F93FA
:100600007F938F939F93AF93BF93EF93FF938CB19F
:10061000809305010E945E00FF91EF91BF91AF9121
:100620009F918F917F916F915F914F913F912F910A
:100630000F900BBE0F900FBE0F901F9018958BB1AF
:100640008BB988E98AB986E1809395001092900071
:1006500087E089B9809165008D7F809365008091E6
:1006600065008E7F80936500809165008B7F80930D
:1006700065008091640082608093640080916400D2
:100680008160809364008091640084608093640042
:1006900084B38F7084BB85B3806F85BB88E20E9472
:1006A000770081E00E9477002FEF8DEE92E02150DD
:1006B00080409040E1F700C0000086E00E94770093
:1006C0008CE00E94770082E00E94770080E80E9420
:1006D000770060E080E00E94F20061E081E00E942B
:1006E000F20062E082E00E94F20063E083E00E9498
:1006F000F20064E084E00E94F20065E085E00E9480
:10070000F20066E086E00E94F20067E087E00E9467
:10071000F20012B880EF89BF8AEA8ABF78948FEF1F
:0A07200084BB15BAFFCFF894FFCF99
:00000001FF
