:100000000C9446000C9458000C9458000C94580022
:100010000C9458000C94C0020C9487020C944D026E
:100020000C9414020C9458000C9458000C94580032
:100030000C9458000C9458000C9458000C945800E0
:100040000C9458000C9458000C94F8020C9458002E
:100050000C9458000C9458000C9458000C945800C0
:100060000C9458000C9458000C9458000C945800B0
:100070000C9458000C9458000C9458000C945800A0
:100080000C9458000C9458000C94580011241FBE76
:10009000CFEFD0E1DEBFCDBF21E0A0E0B1E001C0F5
:1000A0001D92A930B207E1F70E9423030C94970335
:1000B0000C9400005D9BFECF8CB908958CB1813308
:1000C00021F481E0809306010895109206010895BD
:1000D000EFE3FFE13197F1F700C00000E5E6F0E063
:1000E00090819D7F908390819E7F9083908194608A
:1000F000908394B3906F94BB95B39F70282F207F0B
:10010000922B95BB000000000000000000000000E2
:1001100000000000000000000000000000000000DF
:1001200000000000000000000000000000000000CF
:100130000000000090819B7F908300000000000081
:1001400000000000000000000000000000000000AF
:10015000000000000000000000000000000000009F
:100160000000000000000000000090819460908377
:1001700095B39F7040E1849F90011124892F822BB9
:1001800085BB00000000000000000000000000002F
:10019000000000000000000000000000000000005F
:1001A000000000000000000000000000000000004F
:1001B000000080818B7F808384B38F7084BB85B384
:1001C000806F85BB0895CF92DF92EF92FF921F93CD
:1001D000CF93DF93EFE3FFE13197F1F700C0000029
:1001E00094B39F7094BB95B3906F95BB909165004D
:1001F0009D7F90936500909165009160909365005C
:1002000090916500946090936500000000000000EC
:1002100000000000000000000000000000000000DE
:1002200000000000000000000000000000000000CE
:1002300000000000000000000000C3B390916500C2
:100240009B7F90936500000000000000000000000C
:10025000000000000000000000000000000000009E
:10026000000000000000000000000000000000008E
:10027000000000000000909165009460909365007C
:10028000000000000000000000000000000000006E
:10029000000000000000000000000000000000005E
:1002A000000000000000000000000000000000004E
:1002B00093B392959F70C077209165002B7F209318
:1002C0006500C92BD62FDD0FDD0FDD0F880F880FDE
:1002D000880F90E0B0E0A0E06C017D01FEEBCF0E56
:1002E000D11CF1E0EF1EF11C10E08D2F810F806416
:1002F0000E946800EBBEF60127918FE39FE1019712
:10030000F1F700C000008091650082608093650075
:10031000809165008E7F8093650080916500846088
:100320008093650084B3806F84BB95B39F70822FE8
:10033000807F982B95BB00000000000000000000AB
:1003400000000000000000000000000000000000AD
:10035000000000000000000000000000000000009D
:10036000000000000000809165008B7F8093650095
:10037000000000000000000000000000000000007D
:10038000000000000000000000000000000000006D
:10039000000000000000000000000000000000005D
:1003A0008091650084608093650085B38F7090E1D3
:1003B000299F90011124822B85BB000000000000C2
:1003C000000000000000000000000000000000002D
:1003D000000000000000000000000000000000001D
:1003E00000000000000000000000809165008B7F8D
:1003F0008093650084B38F7084BB85B3806F85BBA9
:100400001F5FEFEFCE1ADE0AEE0AFE0A183009F07F
:100410006CCF8C2F8068DF91CF911F91FF90EF9070
:10042000DF90CF900C9468001F920F920FB60F923E
:1004300011240BB60F922F933F934F935F936F93BB
:100440007F938F939F93AF93BF93EF93FF930E94FC
:100450005E0088E0809308019091080185B3892BA4
:1004600085BB83E0809307018CB10E945A0084E32E
:100470000E945A00FF91EF91BF91AF919F918F9190
:100480007F916F915F914F913F912F910F900BBE94
:100490000F900FBE0F901F9018951F920F920FB6DE
:1004A0000F9211240BB60F922F933F934F935F93AC
:1004B0006F937F938F939F93AF93BF93EF93FF932C
:1004C0000E945E0080910601813071F484E0809387
:1004D00008019091080185B3892B85BB82E0809348
:1004E000070183E30E945A00FF91EF91BF91AF9102
:1004F0009F918F917F916F915F914F913F912F913C
:100500000F900BBE0F900FBE0F901F9018951F926B
:100510000F920FB60F9211240BB60F922F933F93A9
:100520004F935F936F937F938F939F93AF93BF93FB
:10053000EF93FF930E945E0090910601913069F461
:1005400082E0809308012091080185B3822B85BB4E
:100550009093070182E30E945A00FF91EF91BF91AF
:10056000AF919F918F917F916F915F914F913F914B
:100570002F910F900BBE0F900FBE0F901F901895EC
:100580001F920F920FB60F9211240BB60F922F935A
:100590003F934F935F936F937F938F939F93AF930B
:1005A000BF93EF93FF930E945E008091060181301C
:1005B00061F4809308019091080185B3892B85BB74
:1005C0001092070181E30E945A00FF91EF91BF91C1
:1005D000AF919F918F917F916F915F914F913F91DB
:1005E0002F910F900BBE0F900FBE0F901F9018957C
:1005F0001F920F920FB60F9211240BB60F922F93EA
:100600003F934F935F936F937F938F939F93AF939A
:10061000BF93EF93FF938CB1809305010E945E001E
:10062000FF91EF91BF91AF919F918F917F916F91CA
:100630005F914F913F912F910F900BBE0F900FBE86
:100640000F901F9018958BB18BB988E98AB986E114
:10065000809395001092900087E089B980916500A1
:100660008D7F80936500809165008E7F809365000B
:10067000809165008B7F809365008091640082602B
:100680008093640080916400816080936400809115
:10069000640084608093640084B38F7084BB85B3EE
:1006A000806F85BB88E20E94680081E00E9468003C
:1006B0002FEF8DEE92E0215080409040E1F700C096
:1006C000000086E00E9468008CE00E94680082E0E2
:1006D0000E94680080E80E94680060E080E00E945C
:1006E000E30061E081E00E94E30062E082E00E94BA
:1006F000E30063E083E00E94E30064E084E00E94A2
:10070000E30065E085E00E94E30066E086E00E9489
:10071000E30067E087E00E94E30012B880EF89BF42
:100720008AEA8ABF78948FEF84BB15BAFFCFF8941A
:02073000FFCFF9
:00000001FF
