:100000000C9446000C9458000C9458000C94580022
:100010000C9458000C94B2020C947A020C94420294
:100020000C940A020C9458000C9458000C9458003C
:100030000C9458000C9458000C9458000C945800E0
:100040000C9458000C9458000C9458000C945800D0
:100050000C9458000C9458000C9458000C945800C0
:100060000C9458000C9458000C9458000C945800B0
:100070000C9458000C9458000C9458000C945800A0
:100080000C9458000C9458000C94580011241FBE76
:10009000CFEFD0E1DEBFCDBF21E0A0E0B1E001C0F5
:1000A0001D92A830B207E1F70E94E9020C945D03AB
:1000B0000C9400005D9BFECF8CB90895EFE3FFE147
:1000C0003197F1F700C00000E5E6F0E090819D7FF8
:1000D000908390819E7F908390819460908394B36D
:1000E000906F94BB95B39F70282F207F922B95BB68
:1000F0000000000000000000000000000000000000
:1001000000000000000000000000000000000000EF
:1001100000000000000000000000000000000000DF
:1001200090819B7F90830000000000000000000091
:1001300000000000000000000000000000000000BF
:1001400000000000000000000000000000000000AF
:1001500000000000000090819460908395B39F7030
:1001600040E1849F90011124892F822B85BB0000E0
:10017000000000000000000000000000000000007F
:10018000000000000000000000000000000000006F
:10019000000000000000000000000000000080815E
:1001A0008B7F808384B38F7084BB85B3806F85BB66
:1001B0000895CF92DF92EF92FF921F93CF93DF9338
:1001C000EFE3FFE13197F1F700C0000094B39F70B7
:1001D00094BB95B3906F95BB909165009D7F909374
:1001E0006500909165009160909365009091650025
:1001F0009460909365000000000000000000000083
:1002000000000000000000000000000000000000EE
:1002100000000000000000000000000000000000DE
:10022000000000000000C3B3909165009B7F909395
:100230006500000000000000000000000000000059
:1002400000000000000000000000000000000000AE
:10025000000000000000000000000000000000009E
:10026000000090916500946090936500000000008C
:10027000000000000000000000000000000000007E
:10028000000000000000000000000000000000006E
:1002900000000000000000000000000093B39295F1
:1002A0009F70C077209165002B7F20936500C92B3C
:1002B000D62FDD0FDD0FDD0F880F880F880F90E040
:1002C000B0E0A0E06C017D01FEEBCF0ED11CF1E0AF
:1002D000EF1EF11C10E08D2F810F80640E945E00E4
:1002E000EBBEF60127918FE39FE10197F1F700C084
:1002F00000008091650082608093650080916500B8
:100300008E7F809365008091650084608093650096
:1003100084B3806F84BB95B39F70822F807F982BAE
:1003200095BB00000000000000000000000000007D
:1003300000000000000000000000000000000000BD
:1003400000000000000000000000000000000000AD
:100350000000809165008B7F8093650000000000A5
:10036000000000000000000000000000000000008D
:10037000000000000000000000000000000000007D
:1003800000000000000000000000000080916500F7
:1003900084608093650085B38F7090E1299F900100
:1003A0001124822B85BB000000000000000000002B
:1003B000000000000000000000000000000000003D
:1003C000000000000000000000000000000000002D
:1003D000000000000000809165008B7F8093650025
:1003E00084B38F7084BB85B3806F85BB1F5FEFEFD5
:1003F000CE1ADE0AEE0AFE0A183009F06CCF8C2FF6
:100400008068DF91CF911F91FF90EF90DF90CF90A8
:100410000C945E001F920F920FB60F9211240BB630
:100420000F922F933F934F935F936F937F938F938D
:100430009F93AF93BF93EF93FF938091070188231E
:1004400071F088E0809306019091060185B3892BB5
:1004500085BB83E08093050184E30E945A00FF91ED
:10046000EF91BF91AF919F918F917F916F915F912C
:100470004F913F912F910F900BBE0F900FBE0F9099
:100480001F9018951F920F920FB60F9211240BB662
:100490000F922F933F934F935F936F937F938F931D
:1004A0009F93AF93BF93EF93FF93809107018823AE
:1004B00071F084E0809306019091060185B3892B49
:1004C00085BB82E08093050183E30E945A00FF917F
:1004D000EF91BF91AF919F918F917F916F915F91BC
:1004E0004F913F912F910F900BBE0F900FBE0F9029
:1004F0001F9018951F920F920FB60F9211240BB6F2
:100500000F922F933F934F935F936F937F938F93AC
:100510009F93AF93BF93EF93FF938091070188233D
:1005200071F082E0809306019091060185B3892BDA
:1005300085BB81E08093050182E30E945A00FF9110
:10054000EF91BF91AF919F918F917F916F915F914B
:100550004F913F912F910F900BBE0F900FBE0F90B8
:100560001F9018951F920F920FB60F9211240BB681
:100570000F922F933F934F935F936F937F938F933C
:100580009F93AF93BF93EF93FF93809107018823CD
:1005900069F081E0809306019091060185B3892B73
:1005A00085BB1092050181E30E945A00FF91EF91F3
:1005B000BF91AF919F918F917F916F915F914F917B
:1005C0003F912F910F900BBE0F900FBE0F901F9079
:1005D00018958BB18BB988E18AB986E18093950033
:1005E0001092900087E089B9809165008D7F80939B
:1005F0006500809165008E7F809365008091650025
:100600008B7F80936500809164008260809364009A
:1006100080916400816080936400809164008460B4
:100620008093640084B38F7084BB85B3806F85BB77
:1006300088E20E945E0081E00E945E002FEF8DEE56
:1006400092E0215080409040E1F700C0000086E039
:100650000E945E008CE00E945E0082E00E945E00CC
:1006600080E80E945E0060E080E00E94D90061E0C6
:1006700081E00E94D90062E082E00E94D90063E03C
:1006800083E00E94D90064E084E00E94D90065E024
:1006900085E00E94D90066E086E00E94D90067E00C
:1006A00087E00E94D90012B880EF89BF8AEA8ABF2A
:0E06B00078948FEF84BB15BAFFCFF894FFCF7C
:00000001FF
